:020000040000FA
:080000000E04040000000000E2
:0400100000020000EA
:040034007E03000047
:08004400620300002803000024
:080054006E02000046030000EB
:0400A000F402000066
:100400003600F800801F7800200020000C00090052
:10041000B01F78000000FE00FEFF37008060A900DA
:10042000A00120000C0009004F1078004F00780058
:100430003600F900004006008C28EF008E28EF00FF
:1004400000C0B30091E8B7009268EF009068EF0039
:10045000844480006824E100080031008BC8BF009C
:100460008000780090C8BF000100A500010039009D
:100470009168EC009068EC00F5FF37009108AE0041
:100480000300370010C0B30092E8B7000100370046
:100490009268EF0092C8BF008AE8B7008A48E2007D
:1004A00001003A008D08A900544480006124E10055
:1004B00001003A008D08A800544480004822DE0064
:1004C0006344800004804100604488008C08F80088
:1004D0003402F9003222A900000006003600F800BC
:1004E000801F7800200020000C000900B01F780059
:1004F0008828EF002602F8008808F90088C8BF00A5
:1005000087E8B700CC02AA002222AE000100370023
:100510002222A9008A68EF0088C8BF008BE8B700D4
:100520001C020200000000008560A900A00120005C
:100530000C0009004F1078004F0078003600F900D9
:10054000004006008C28EF008E28EF0000C0B300AA
:1005500091E8B7009268EF009068EF008444800053
:100560006824E100080031008BC8BF0080007800DB
:1005700090C8BF000100A500010039009168EC009F
:100580009068EC00F5FF37009108AE0003003700DB
:1005900010C0B30092E8B700010037009268EF0086
:1005A00092C8BF008AE8B7008A48E20001003A001A
:1005B0008D08A900544480006124E10001003A0044
:1005C0008D08A800544480004822DE006344800067
:1005D00004804100604488008C08F8002402F9007F
:1005E0002222A900000006003600F800801F7800D3
:1005F000200020000C000900B01F78008828EF00C0
:100600003602F8008808F90088C8BF0087E8B700FC
:100610003222AE00010037003222A900C422AA0013
:100620008A68EF0088C8BF008BE8B700A20202000A
:100630000000000087C0A900A00120000C000900F4
:100640004F1078004F0078003600F9000040060097
:100650003600F800801F7800200020000C00090000
:10066000B01F780000C0B30087E8B700CC22AA0012
:100670008500A900A00120000C0009004F1078009F
:100680004F0078003600F900004006003600F80000
:10069000801F7800200020000C000900B01F7800A7
:1006A00000C0B30087E8B7008580A900A001200042
:1006B0000C0009004F1078004F0078003600F90058
:1006C000004006003600F800801F7800200020005F
:1006D0000C000900B01F780000C0B30087E8B70025
:1006E00084E0A900A00120000C0009004F10780050
:1006F0004F0078003600F900004006003600F80090
:10070000801F7800200020000C000900B01F780036
:100710008460A900A00120000C0009004F1078009F
:100720004F0078003600F900004006000000E000AD
:100730004220AF0004003700793E090000000000AD
:100740000000E900F9FF370000000600040E200059
:10075000140288000400280074168800C4FF2F00CB
:1007600004168800C4FC2F0044168800E40221000F
:10077000943188002CA3EF00043F2F0084318800BF
:1007800064C028000411880034032000441188004C
:10079000F47121001411880064C0280084118800BD
:1007A00034032000C4118800F471210094118800E2
:1007B0001021EF00F48F21006408880004032A0050
:1007C000840888001221EF00A4FF2F00740888001D
:1007D00004022A00940888000421EF00F48F23000B
:1007E0001408880004022A0024088800C402A80013
:1007F000C422A800CC02A800CC22A80040382000C7
:100800009603020000000000C402A900C422A9004F
:10081000CC02A900CC22A90000000600404425001B
:1008200020058800404425003005880050442500FC
:10083000400588005044240050058800405424009E
:100840009005880070102000A4A6B700801020003A
:10085000A6A6B70030502000C4A6B7006004200050
:1008600042E7B7007005200042E7B70042C7A80082
:100870002CA3EF002AA3EF000FF82100F0FF2100C6
:1008800020A0B700000000000068EF0000C0B30027
:1008900001E8B7000268EF0000C0B30003E8B7004A
:1008A0000468EF0000C0B30005E8B7000668EF0079
:1008B00000C0B30007E8B70010C0B30008E8B700F5
:1008C00000C0B30009E8B70020C0B3000AE8B700D1
:1008D0000C28EF000E28EF001028EF001228EF0080
:1008E0001428EF001628EF001828EF001A28EF0050
:1008F0001C28EF001E28EF002028EF002228EF0020
:100900002428EF002628EF002828EF002A28EF00EF
:100910002C28EF002E28EF003028EF003228EF00BF
:100920003428EF003628EF003828EF003A28EF008F
:100930003C28EF003E28EF004028EF004228EF005F
:100940004428EF004628EF004828EF004A28EF002F
:100950004C28EF004E28EF005028EF005228EF00FF
:100960005428EF005628EF005828EF005A28EF00CF
:100970005C28EF005E28EF006028EF006228EF009F
:100980006428EF006628EF006828EF006A28EF006F
:100990006C28EF006E28EF007028EF007228EF003F
:1009A0007428EF007628EF007828EF007A28EF000F
:1009B0007C28EF007E28EF008028EF008228EF00DF
:1009C00000C0B3000BE8B7008468EF0000C0B300BC
:1009D00085E8B7008668EF00A6030200000000006B
:1009E0009500A80094E0A8009460A8009560A80075
:1009F00097C0A8004220EF00FFFF37000040FE0034
:08AFF800F58300005F0F00006B
:00000001FF
;PIC24FJ32GA002
