:08000000201C040000000000B8
:04001000F4060000F2
:04003400881B000025
:0800440008110000161B00006A
:080054004E110000A61100008E
:0800A00008140000461B0000DB
:100400003220EF000303200083015000040031007C
:1004100003222000008041001000BA000000060006
:100420000022200083814100808141003380BA0096
:100430009381BA00C819DD00008071000000060039
:100440000400330042000000230030005700000089
:1004500042002000410000002D002000310000007B
:10046000320020002F000000310020003300000087
:100470002000200030000000320020003400000086
:1004800020002000200000005600960033000000ED
:100490002E00C70036000000300000002D000000D4
:1004A0003220EF00A3252000008041001000BA0098
:1004B0000000060004000000F1000000050000003C
:1004C0001C000000510000003220EF00E326200055
:1004D000008041001000BA00000006000400000087
:1004E0009000000005000000910000002D000000B9
:1004F0003220EF0023282000008041001000BA00C5
:100500000000060004000000D0000000050000000C
:10051000F70000006B0000003220EF00632920008C
:10052000008041001000BA00000006000400000036
:1005300050000000050000003B000000E700000044
:100540003220EF00A32A2000008041001000BA00F2
:10055000000006000400000001000000050000008B
:10056000140000002D0000003220EF00E32B2000DB
:10057000008041001000BA000000060004000000E6
:1005800010000000050000005D000000A100000058
:100590003220EF00232D2000008041001000BA001F
:1005A0000000060004000000E30000000700000057
:1005B000F7000000990000001A0000000800000089
:1005C0003220EF00A32E2000008041001000BA006E
:1005D0000000060004000000F00000001100000010
:1005E00064000000000000000000000000000000A7
:1005F00000000000000000000000000000000000FB
:1006000000000000000000000000000000000000EA
:10061000BB000000B80000003220EF006331200072
:10062000008041001000BA00000006000400000035
:10063000B000000011000000640000000000000095
:1006400000000000000000000000000000000000AA
:10065000000000000000000000000000000000009A
:100660000000000000000000D4000000FB000000BB
:100670003220EF0023342000008041001000BA0037
:100680000000060004000000B0000000110000009F
:10069000F400000001000000000000000000000065
:1006A000000000000000000000000000000000004A
:1006B000000000000000000000000000000000003A
:1006C0005D000000150000003220EF00E33620003E
:1006D000008041001000BA00000006000400000085
:1006E000F000000011000000F40000000100000014
:1006F00000000000000000000000000000000000FA
:1007000000000000000000000000000000000000E9
:100710000000000000000000320000005600000051
:100720003220EF00A3392000008041001000BA0001
:10073000000006000400000070000000110000002E
:10074000E8000000030000000000000000000000BE
:100750000000000000000000000000000000000099
:100760000000000000000000000000000000000089
:100770008C000000610000003220EF00633C20008C
:10078000008041001000BA000000060004000000D4
:10079000F000000011000000E8000000030000006D
:1007A0000000000000000000000000000000000049
:1007B0000000000000000000000000000000000039
:1007C000000000000000000052000000E7000000F0
:1007D0003220EF00233F2000008041001000BA00CB
:1007E000000006000400000070000000110000007E
:1007F000D000000007000000000000000000000022
:1008000000000000000000000000000000000000E8
:1008100000000000000000000000000000000000D8
:100820005D0000000B0000003220EF00E3412000DB
:10083000008041001000BA00000006000400000023
:10084000B000000011000000D00000000700000010
:100850000000000000000000000000000000000098
:100860000000000000000000000000000000000088
:100870000000000000000000EC000000CE000000BE
:100880003220EF00A3442000008041001000BA0095
:1008900000000600040000007000000011000000CD
:1008A00088000000130000000000000000000000AD
:1008B0000000000000000000000000000000000038
:1008C0000000000000000000000000000000000028
:1008D000190000006C0000003220EF006347200088
:1008E000008041001000BA00000006000400000073
:1008F000F00000001100000088000000130000005C
:1009000000000000000000000000000000000000E7
:1009100000000000000000000000000000000000D7
:100920000000000000000000C7000000EA00000016
:100930003220EF00234A2000008041001000BA005E
:100940000000060004000000730000000900000021
:100950006400000000000000000000000000000033
:10096000660000001C0000003220EF00E34B200076
:10097000008041001000BA000000060004000000E2
:100980007300000009000000F400000001000000F6
:10099000000000000000000075000000A80000003A
:1009A0003220EF00A34D2000008041001000BA006B
:1009B0000000060004000000F30000000900000031
:1009C000E80000000300000000000000000000003C
:1009D000FA0000004C0000003220EF00634F2000BE
:1009E000008041001000BA00000006000400000072
:1009F000B300000009000000D00000000700000064
:100A00000000000000000000600000008400000002
:100A10003220EF0023512000008041001000BA0076
:100A20000000060004000000B30000000900000000
:100A3000880000001300000000000000000000001B
:100A40005A000000520000003220EF00E352200064
:100A5000008041001000BA00000006000400000001
:100A6000B1000000050000007A000000170000003F
:100A70003220EF0023542000008041001000BA0013
:100A800000000600FC00000005000000420000001D
:100A900039000000360000003220EF0063552000CE
:100AA000008041001000BA0000000600FC000000B9
:100AB00005000000110000002700000056000000A3
:100AC0003220EF00A3562000008041001000BA0041
:100AD00000000600FC0000000500000040000000CF
:100AE0002B000000150000003220EF00E35720002B
:100AF000008041001000BA0000000600FC00000069
:100B000007000000C000000080000000000000009E
:100B1000E1000000390000003220EF00635920009E
:100B2000008041001000BA0000000600FC00000038
:100B300007000000C1000000FF00000000000000EE
:100B400031000000100000003220EF00E35A2000C6
:100B5000008041001000BA0000000600FC00000008
:100B600006000000C4000000000000000C000000AF
:100B70009B0000003220EF00435C20000080410019
:100B80001000BA0000000600FC0000000600000093
:100B9000C5000000030000004F000000B00000008E
:100BA0003220EF00A35D2000008041001000BA0059
:100BB00000000600FC00000006000000C30000006A
:100BC0000000000004000000D60000003220EF000A
:100BD000035F2000008041001000BA000000060002
:100BE000FC00000007000000C6000000010000003B
:100BF00012000000BF000000490000003220EF009A
:100C000083602000008041001000BA000000060050
:100C1000FC00000006000000C7000000FF0000000C
:100C20001C000000BE0000003220EF00E361200045
:100C3000008041001000BA0000000600FC00000027
:100C40000500000089000000E60000004E000000E2
:100C50003220EF0023632000008041001000BA0022
:100C600000000600FC0000000500000080000000FD
:100C700027000000D30000003220EF006364200052
:100C8000008041001000BA0000000600FC000000D7
:100C90000500000084000000030000009500000033
:100CA0003220EF00A3652000008041001000BA0050
:100CB00000000600FC0000000500000081000000AC
:100CC000AE000000C20000003220EF00E36620000A
:100CD000008041001000BA0000000600FC00000087
:100CE0000500000083000000BC000000E1000000DF
:100CF0003220EF0023682000008041001000BA007D
:100D000000000600FC000000050000008600000056
:100D100011000000B60000003220EF0063692000DF
:100D2000008041001000BA0000000600FC00000036
:100D3000050000008700000098000000A7000000E8
:100D40003220EF00A36A2000008041001000BA00AA
:100D500000000600FC000000050000008800000004
:100D60006F0000005F0000003220EF00E36B200006
:100D7000008041001000BA0000000600FC000000E6
:100D80000500000050000000AA000000050000005F
:100D90003220EF00236D2000008041001000BA00D7
:100DA00000000600FC00000006000000C300000078
:100DB000010000008D000000C70000003220EF009D
:100DC000836E2000008041001000BA000000060081
:100DD000FC00000006000000C7000000FC0000004E
:100DE000870000008C0000004200F8003600F80088
:100DF000801F7800200020000C000900B01F780040
:100E00000000FE00FEFF37008060A900A001200066
:100E10000C0009004F1078004F0078003600F900F0
:100E20004200F900004006001E29EF002029EF00D3
:100E30002369EF002469EF001DC9BF0024E2B70059
:100E40002562EF002222A9000000060010C0B300B6
:100E50006EE8B7009580A80032C8BF001AE9B70055
:100E60001C69EF001AC9BF001DE9B7001407020092
:100E70000000000000000600851F780072C8BF0057
:100E80000000FB006300E10001003A007268EF001F
:100E900072C8BF000160EF000080B20005003200A0
:100EA0001080B2001A0032003080B2002F003200F1
:100EB000440037001869EF0018C9BF000000FB00AC
:100EC0006500E1000D003D0018C9BF000000FB00F7
:100ED000248320008402400018C9BF000000FB00EA
:100EE000000278006220B8006402020000000000E6
:100EF000804A78001869EC00EFFF370050C0B3005B
:100F00006FE8B70010C0B30072E8B7002D003700DB
:100F10001869EF0018C9BF000000FB006500E10080
:100F20000D003D0018C9BF000000FB002483200015
:100F30008402400018C9BF000000FB0000027800D6
:100F40006220B8007802020000000000804A7800A9
:100F50001869EC00EFFF370050C0B3006FE8B7002E
:100F600020C0B30072E8B700160037001869EF0020
:100F700018C9BF000000FB006500E1000D003D0046
:100F800018C9BF000000FB00248320008402400039
:100F900018C9BF000000FB00000278006220B80002
:100FA0008C02020000000000804A78001869EC0002
:100FB000EFFF370050C0B3006FE8B7007268EF0072
:100FC000000037002607020000000000CF02780072
:100FD0000000060040C0B30032E8B7003368EF00FD
:100FE00020C0B3006FE8B700260702000000000031
:100FF00000000600851F780071C8BF000160EF0087
:101000000080B200070032001080B20008003200F9
:101010003080B200090032001080B2001F003200A0
:10102000350037003C0702000000000032003700A6
:10103000EA070200000000002F0037001269EF00ED
:1010400012C9BF000000FB006500E1000D003D007B
:1010500012C9BF000000FB0024832000840240006E
:1010600012C9BF000000FB00000278006220B80037
:10107000B402020000000000804A78001269EC000F
:10108000EFFF370050C0B3006FE8B700260702003B
:10109000000000007168EF00170037001269EF00D0
:1010A00012C9BF000000FB006700E1000D003D0019
:1010B00012C9BF000000FB0024832000840240000E
:1010C00012C9BF000000FB00000278006220B800D7
:1010D000C802020000000000804A78001269EC009B
:1010E000EFFF370070C0B3006FE8B70026070200BB
:1010F0000000000000003700CF027800000006006A
:10110000851F780030C0B30003E8B70075C8BF0082
:101110000000FB006100E10002003A007568EF008A
:101120000200370010C0B30075E8B70008C8BF0060
:1011300012E9B70071C8BF000160EF000080B20083
:101140000F0032001080B2001B0132004080B2005C
:101150001C0132001080B200250132007080B20004
:10116000AF0132001080B200B80132005080B200EE
:10117000E40132001080B200F30132000E023700A9
:1011800012C9BF000160EF001080B20009003200F8
:101190004080B2003A003200F080B2006B003200B2
:1011A000E081B2009C0032006082B200CD003200CB
:1011B000FF00370010C1B30014E9B7007568EF00F5
:1011C0007548E200120032001369EF0013C9BF0036
:1011D000A44880000024E1000D00340013C9BF00C2
:1011E0000000FB00248320008402400013C9BF00DC
:1011F0000000FB00000278006220B800E00202005C
:1012000000000000804A78001369EC00EFFF37000F
:1012100010C0B30075E8B7007548E2001200320054
:101220001369EF0013C9BF00A44880000024E10047
:101230000D00340013C9BF000000FB002483200010
:101240008402400013C9BF000000FB0000027800C8
:101250006220B8000C03020000000000804A780001
:101260001369EC00EFFF370010C1B3006FE8B7005F
:101270002607020000000000CC22A900CD003700A4
:1012800010C1B30014E9B7007568EF007548E200BB
:10129000120032001369EF0013C9BF00A448800098
:1012A0000024E1000D00340013C9BF000000FB0062
:1012B000248320008402400013C9BF000000FB000B
:1012C000000278006220B80038030200000000002D
:1012D000804A78001369EC00EFFF370010C0B300BC
:1012E00075E8B7007548E200120032001369EF009C
:1012F00013C9BF00A44880000024E1000D003400A1
:1013000013C9BF000000FB002483200084024000BA
:1013100013C9BF000000FB00000278006220B80083
:101320006403020000000000804A78001369EC00AA
:10133000EFFF370010C1B3006FE8B70026070200C7
:1013400000000000CC22A9009A00370010C1B300B1
:1013500014E9B7007568EF007548E200120032002A
:101360001369EF0013C9BF00A44880000024E10006
:101370000D00340013C9BF000000FB0024832000CF
:101380008402400013C9BF000000FB000002780087
:101390006220B8009003020000000000804A78003C
:1013A0001369EC00EFFF370010C0B30075E8B70019
:1013B0007548E200120032001369EF0013C9BF0044
:1013C000A44880000024E1000D00340013C9BF00D0
:1013D0000000FB00248320008402400013C9BF00EA
:1013E0000000FB00000278006220B800BC0302008D
:1013F00000000000804A78001369EC00EFFF37001E
:1014000010C1B3006FE8B70026070200000000001B
:10141000CC22A9006700370010C1B30014E9B7005F
:101420007568EF007548E200120032001369EF00A2
:1014300013C9BF00A44880000024E1000D0034005F
:1014400013C9BF000000FB00248320008402400079
:1014500013C9BF000000FB00000278006220B80042
:10146000E803020000000000804A78001369EC00E5
:10147000EFFF370010C0B30075E8B7007548E20011
:10148000120032001369EF0013C9BF00A4488000A6
:101490000024E1000D00340013C9BF000000FB0070
:1014A000248320008402400013C9BF000000FB0019
:1014B000000278006220B80014040200000000005E
:1014C000804A78001369EC00EFFF370010C1B300C9
:1014D0006FE8B7002607020000000000CC22A90038
:1014E0003400370010C1B30014E9B7007568EF008D
:1014F0007548E200120032001369EF0013C9BF0003
:10150000A44880000024E1000D00340013C9BF008E
:101510000000FB00248320008402400013C9BF00A8
:101520000000FB00000278006220B80040040200C6
:1015300000000000804A78001369EC00EFFF3700DC
:1015400010C0B30075E8B7007548E2001200320021
:101550001369EF0013C9BF00A44880000024E10014
:101560000D00340013C9BF000000FB0024832000DD
:101570008402400013C9BF000000FB000002780095
:101580006220B8006C04020000000000804A78006D
:101590001369EC00EFFF370010C1B3006FE8B7002C
:1015A0002607020000000000CC22A900010037003D
:1015B0000000370000013700EA07020000000000C9
:1015C000FD0037007668EC0076C8BF000000FB0025
:1015D0006200E10003003A007668EF0040C0B3000B
:1015E00071E8B700EA07020000000000F2003700CF
:1015F00012C9BF000160EF001080B2000900320084
:101600004080B20020003200F080B200370032008B
:10161000E081B2004E0032006082B200650032000C
:101620007D00370090C0B30014E9B7001369EF00E4
:1016300013C9BF00A44880000024E1000D0034005D
:1016400013C9BF000000FB00248320008402400077
:1016500013C9BF000000FB00000278006220B80040
:101660009804020000000000804A78001369EC0032
:10167000EFFF370090C0B3006FE8B7002607020005
:10168000000000006500370090C0B30014E9B70007
:101690001369EF0013C9BF00A44880000024E100D3
:1016A0000D00340013C9BF000000FB00248320009C
:1016B0008402400013C9BF000000FB000002780054
:1016C0006220B800B404020000000000804A7800E4
:1016D0001369EC00EFFF370090C0B3006FE8B7006C
:1016E00026070200000000004C00370090C0B30045
:1016F00014E9B7001369EF0013C9BF00A4488000C4
:101700000024E1000D00340013C9BF000000FB00FD
:10171000248320008402400013C9BF000000FB00A6
:10172000000278006220B800D0040200000000002F
:10173000804A78001369EC00EFFF370090C0B300D7
:101740006FE8B700260702000000000033003700F2
:1017500090C0B30014E9B7001369EF0013C9BF00CC
:10176000A44880000024E1000D00340013C9BF002C
:101770000000FB00248320008402400013C9BF0046
:101780000000FB00000278006220B800EC040200B8
:1017900000000000804A78001369EC00EFFF37007A
:1017A00090C0B3006FE8B7002607020000000000F9
:1017B0001A00370090C0B30014E9B7001369EF00B6
:1017C00013C9BF00A44880000024E1000D003400CC
:1017D00013C9BF000000FB002483200084024000E6
:1017E00013C9BF000000FB00000278006220B800AF
:1017F0000805020000000000804A78001369EC0030
:10180000EFFF370090C0B3006FE8B7002607020073
:1018100000000000010037000000370066003700BC
:101820007668EC0076C8BF000000FB006200E100B3
:1018300003003A007668EF0020C0B30071E8B700FB
:10184000EA070200000000005B00370075C8BF0017
:101850000000FB006100E10013003A001369EF0093
:1018600013C9BF000000FB006500E1000D003D0052
:1018700013C9BF000000FB00248320008402400045
:1018800013C9BF000000FB00000278006220B8000E
:101890005002020000000000804A78001369EC004A
:1018A000EFFF3700120037001369EF0013C9BF00C4
:1018B0000000FB006500E1000D003D0013C9BF0002
:1018C0000000FB00248320008402400013C9BF00F5
:1018D0000000FB00000278006220B800240502002E
:1018E00000000000804A78001369EC00EFFF370029
:1018F00050C0B3006FE8B7002607020000000000E8
:101900002D0037003C070200000000007768EF0060
:101910007868EC0078C8BF000000FB006A00E100B6
:1019200008003A007868EF00044080006124E1007C
:1019300004003A0040C0B30071E8B70070C0B300C3
:1019400000E8B7001C003700EA07020000000000B2
:101950007868EF007768EC0077C8BF000000FB00F4
:101960006400E10013003A007768EF0008C8BF0088
:101970000000FB000000E00003003A0009C8BF00BF
:1019800008E8B7000968EF0008C8BF000000FB00C6
:101990000000E000020032007168EF00050037002F
:1019A0007068EF0020C0B30003E8B70010C0B300B8
:1019B00071E8B70000003700CF0278000000060091
:1019C00071C8BF000160EF000080B2000300320068
:1019D0001080B20004003200060037003C0702000D
:1019E0000000000003003700EA07020000000000CA
:1019F0000000370000000600851F78001009F8007D
:101A00001809F9001229EF009048800074488000FE
:101A10000020E10022003400904880000C09B4004E
:101A200010407800F00FB200B0488800C048800035
:101A30001689B600800278006F806200A048880096
:101A4000C5488000C42ADE00A44880001308210095
:101A500003A0B900C04888000500780018A9B600A6
:101A6000B04880004400DE001889B600800278008B
:101A70006F806200A0488800C5488000C42ADE004C
:101A8000A44880001308210003A0B900C0488800C2
:101A90000500780018A9B6001229EC00DAFF37001B
:101AA00018C9BF000BE0B7008042EB0019C9BF00A6
:101AB0000160EF0000807200C04888001809F8003B
:101AC0000000F900CF02780000000600851F7800B2
:101AD0001869EF0018C9BF000000FB006500E100B5
:101AE0000D003D0018C9BF000000FB00248320004A
:101AF0008402400018C9BF000000FB00000278000B
:101B00006220B800A002020000000000804A7800B5
:101B10001869EC00EFFF370050C0B3006FE8B70062
:101B20002607020000000000CF0278000000060037
:101B3000851F780014C8BF0016E9B70013C8BF009E
:101B400014E9B70014C9BF000000FB006F0060007B
:101B500013E9B70013C9BF000160EF00F080B200C5
:101B600009003200F080B2000D0032001080B20097
:101B7000100032003080B200230032006080B200DA
:101B80004C0032004F00370020C0B30071E8B700AE
:101B9000CC22A900660D0200000000004C003700B6
:101BA00010C0B30071E8B700660D0200000000002D
:101BB0004700370016C8BF000000FB00D402200019
:101BC0000020E100030032007168EF00EA07020024
:101BD0000000000016C8BF000000FB00D402200077
:101BE0000020E10007003A0071C8BF000160EF006B
:101BF0003080B20001003200020037007168EF004F
:101C0000000037003200370016C9BF000000FB009B
:101C10006B00E1000400320016C9BF000000FB00A9
:101C20006D00E10004003A0030C0B30071E8B70075
:101C3000660D02000000000014C8BF000000FB0099
:101C40006500E1001A003A001569EF0015C9BF00F0
:101C50000000FB00340220000020E1000D003400F1
:101C600015C9BF000000FB0024832000840240004F
:101C700015C9BF000000FB00000278006220B80018
:101C80000002020000000000804A78001569EC00A4
:101C9000EEFF370030C2B3006FE8B700260702003E
:101CA00000000000CC22A8007068EF007168EF000F
:101CB000070037007168EF00660D020000000000A9
:101CC00003003700660D020000000000000037002E
:101CD000CF0278000000060014C8BF0016E9B70064
:101CE00013C8BF0014E9B70014C9BF000000FB000F
:101CF0006F00600013E9B70013C9BF000160EF0077
:101D00000080B200070032001080B2000C003200E8
:101D10003080B2005E0032001080B20061003200FC
:101D200065003700660D02000000000071C8BF00AA
:101D300000E8B70060C0B30071E8B7006100370089
:101D400016C8BF000000FB00D40220000020E10004
:101D50000600320071C8BF0000E8B700660D02003F
:101D60000000000070C0B30071E8B70016C8BF00E3
:101D70000000FB00D40220000020E10043003A00F4
:101D800071C8BF000160EF000080B20005003200A2
:101D90002080B200260032006080B2002D003200A8
:101DA0003A00370010C0B30071E8B70017C8BF0091
:101DB0000000FB006400E1001C003A0018C8BF00EE
:101DC00014E9B70014C9BF000000FB006F006000F9
:101DD00014E9B70014C9BF000000FB006200E10075
:101DE00005003A0030C0B30071E8B700660D02008C
:101DF000000000000D00370014C9BF000000FB0008
:101E00006300E10007003A0050C0B30071E8B7007A
:101E1000660D02000000000030C0B30003E8B70008
:101E200002003700EA070200000000001700370038
:101E3000EA0702000000000060C0B30000E8B7003D
:101E400060C0B30071E8B7000868EF00CC22A800BA
:101E50000E003700044080006724E10005003A00CE
:101E60003C0702000000000000C8BF0071E8B70096
:101E700004003700EA0702000000000060C0B30061
:101E800071E8B700CC22A800000037000D00370031
:101E900030C0B30071E8B700660D0200000000001A
:101EA0000800370050C0B30071E8B700660D0200AB
:101EB0000000000003003700660D02000000000073
:101EC0000000370000000600851F780014C8BF001E
:101ED00016E9B70013C8BF0014E9B70014C9BF0062
:101EE0000000FB006F00600013E9B70013C9BF00DA
:101EF0000160EF00F080B20007003200F080B20015
:101F0000100032001080B200160032003080B200A3
:101F10002C0032005700370020C0B30071E8B70032
:101F200020C0B30070E8B70010C0B30003E8B700EA
:101F3000C402A900CC22A900660D02000000000026
:101F40004F00370010C0B30071E8B70020C0B300E5
:101F500003E8B700C402A800660D020000000000FC
:101F60004700370016C8BF000000FB00D402200065
:101F70000020E100060032007168EF00C402A900F1
:101F800030C0B30003E8B700660D02000000000097
:101F900016C8BF000000FB00D40220000020E100B2
:101FA00007003A0071C8BF000160EF003080B20046
:101FB00001003200020037007168EF0000003700B6
:101FC0002F00370016C9BF000000FB006B00E100C6
:101FD00004003A0030C0B30071E8B700660D02009B
:101FE0000000000016C9BF000000FB006D00E1000A
:101FF00002003A00660D02000000000014C8BF0095
:102000000000FB006500E10019003A001569EF00CF
:1020100015C9BF000000FB00340220000020E100D1
:102020000D00340015C9BF000000FB002483200010
:102030008402400015C9BF000000FB0000027800C8
:102040006220B8000002020000000000804A780010
:102050001569EC00EEFF370030C2B3006FE8B7003F
:1020600026070200000000007068EF007168EF00B2
:1020700003003700660D020000000000000037007A
:10208000CF027800000006000029EF000229EF00CF
:1020900012C8BF000000FB006400E10016003A0017
:1020A00013C8BF000000FB000000E00012003A006F
:1020B00070C8BF000160EF002080B2000500320050
:1020C0003080B200060032001080B20007003200FB
:1020D00009003700FA070200000000000600370080
:1020E000800802000000000003003700E00C02003E
:1020F000000000000000370012C8BF000000FB0015
:102100006400E1003F003A0014C8BF000000FB007B
:102110006200500009E9B7000669EF0009C9BF0075
:1021200000E9B70006C9BF0001E9B700248120001B
:10213000644888000009F8000E09F9001029EF0032
:10214000FC0C0200000000001048880014C8BF000A
:102150000000FB006100500008E9B70008C9BF009B
:102160000000FB002481200004004000344880006F
:10217000004290003448880014C8BF000000FB00F3
:102180006200500008E9B70008C9BF000000FB006A
:1021900024812000040040001040780007E9B700C7
:1021A00006C9BF0004E9B70007C9BF0005E9B700C9
:1021B000104880000409E30012003A0070C8BF0014
:1021C0000160EF002080B200050032003080B200D4
:1021D000060032001080B20007003200090037000C
:1021E000980D020000000000060037006C0E02008F
:1021F0000000000003003700640F02000000000030
:1022000000003700E0CFB30012E8B700000006007E
:102210004200F8003600F800801F780020002000FF
:102220000C000900B01F7800FE68EF0011E1A90062
:1022300094E0A90044100200000000001168EF00C3
:10224000CC02A9000621EF00FE68EF00FEC8BF0027
:102250000000FB006A00E10008003D00FEC8BF006E
:102260000000FB00248120008402400080CCB300E9
:10227000804A7800FE68EC00F4FF370084E0A90093
:10228000A00120000C0009004F1078004F007800DA
:102290003600F9004200F900004006004200F80054
:1022A0003600F800801F7800200020000C00090094
:1022B000B01F7800FE28EF002602F800FE08F900A3
:1022C000FEC8BF0000E9B700CC02A80011C8BF00DB
:1022D0000000FB00248120008402400000C9BF00F0
:1022E000804298001168EC0011C8BF000000FB009C
:1022F000240320000020E10001003D001168EF00F0
:1023000084E0A90011C8BF000000FB006100E100EB
:1023100003003A000621EF0011E1A80094E0A800B4
:102320002222AE00010037002222A9008560A90008
:10233000A00120000C0009004F1078004F00780029
:102340003600F9004200F900004006008580A9002F
:102350004200F8003600F800801F780020002000BE
:102360000C000900B01F7800FE68EF006EC8BF00C7
:102370000000FB002483200004004000F44780009C
:1023800000429000F44788001C69EF00FEC8BF00BF
:102390001DE9B70014070200000000006E68EC00A1
:1023A0006EC8BF006F48E30002003A009580A900A4
:1023B0009560A800A00120000C0009004F107800D3
:1023C0004F0078003600F9004200F9000040060096
:1023D000FB68EF00FC68EF007DC8BF00B848E30071
:1023E000020032000040EB0000003700B7C8BF0019
:1023F0007FE8B700044480006224E10072003A00E4
:102400007FC8BF000160EF000084B20025003200E9
:10241000B085B20026003200B084B200270032003E
:10242000908DB200280032001080B20029003200E6
:10243000F080B200320032001080B200330032006F
:102440002080B200340032007080B20035003200CB
:102450002080B200360032001080B2003700320017
:102460000084B200380032001080B200390032001F
:102470002080B2003A0032007080B2003B0032008F
:10248000F088B2003C003200D088B2004400320034
:102490001080B20045003200D08DB20046003200FC
:1024A0004900370030C0B3007EE8B700460037006F
:1024B00030C0B3007EE8B7004300370010C1B3005E
:1024C0007EE8B7004000370020C0B3007EE8B700C8
:1024D0003D00370000C1B3007EE8B700C44580006E
:1024E00064C5B20005003A0010C0B30079E8B70037
:1024F00010C0B3007EE8B7008068EF0032003700FC
:10250000F0C0B3007EE8B7002F003700C0C0B300B2
:102510007EE8B7002C003700E0C0B3007EE8B700CB
:1025200029003700D0C0B3007EE8B700260037008E
:10253000B0C0B3007EE8B7002300370040C0B3004E
:102540007EE8B7002000370050C0B3007EE8B70037
:102550001D00370080C0B3007EE8B7001A003700C6
:1025600060C0B3007EE8B7001700370070C0B3004A
:102570007EE8B7001400370090C0B3007EE8B700D3
:10258000C44380004822DE006124E10003003A00D9
:1025900010C0B3007EE8B7008068EF000A00370083
:1025A000A0C0B3007EE8B7000700370010C0B3003A
:1025B0007EE8B7000400370010C0B3007EE8B70023
:1025C0008068EF00000037008048E20044003A00D5
:1025D0007FC8BF000160EF000084B2000D00320030
:1025E000B085B200100032001080B200130032003B
:1025F000B080B200180032003080B2001D003200FE
:10260000508DB200200032004080B200290032001C
:102610003300370020C0B30080E8B70010C0B3001B
:102620007EE8B7002E00370020C0B30080E8B70076
:1026300010C0B3007EE8B7002900370007C8BF000C
:102640000000FB006100E10002003A0020C1B3007D
:102650007EE8B7002200370007C8BF000000FB007B
:102660000000E00002003A0030C1B3007EE8B7008D
:102670001B00370010C0B3007EE8B70010C0B300E5
:1026800080E8B70016003700F44380007224E100B0
:1026900002003A0010C0B3007EE8B700F4438000A7
:1026A0007324E10002003A0010C0B3007EE8B700D6
:1026B0000B003700F44380007224E10002003A006E
:1026C00010C0B3007EE8B700F44380007324E1003B
:1026D00002003A0010C0B3007EE8B70000003700E7
:1026E000044480006124E10048003A007FC8BF0034
:1026F0000160EF003081B200070032003084B20088
:102700000A0032005084B200110032004080B20052
:102710003A0032003D003700B8C8BF007CE8B7007F
:1027200060C1B3007EE8B700380037007EC8BF0044
:102730000160EF006081B200010032000300370049
:1027400010C0B3007EE8B700000037002F0037004C
:1027500070C1B3007EE8B7007CC8BF000160EF0025
:102760001086B2000B0032003080B2000D00320043
:102770001080B200100032007080B20012003200EF
:102780001080B200140032003080B2001600320017
:102790001900370010C0B30008E8B7000968EF005F
:1027A0001500370010C0B30008E8B70010C0B30030
:1027B00009E8B7001000370050C0B30008E8B700C0
:1027C0000968EF000C003700A0C0B30008E8B700AC
:1027D0000968EF000800370040C1B30008E8B700FF
:1027E0000968EF000400370020C3B30008E8B70011
:1027F0000968EF0000003700040037008068EF0030
:1028000010C0B3007EE8B7000000370000000600EB
:102810004200F8003600F800801F780020002000F9
:102820000C000900B01F7800FE28EF003602F80007
:10283000FE08F900FEC8BF0000E9B700FB68EC0025
:10284000FBC8BF000000FB00740320000020E10073
:1028500002003D00FB68EF00FC68EF00FC68EF0041
:10286000FC48E2000900320000C9BF000000FB0084
:10287000C40F20000020E10004003A0010C0B300A3
:10288000FBE8B70010C0B300FCE8B700FBC8BF000E
:102890000000FB00448B20008402400000C9BF0000
:1028A00080429800B6C8BF00FB48E30003003A002E
:1028B000E811020000000000C422AA003222AE008B
:1028C000010037003222A90087C0A900A001200022
:1028D0000C0009004F1078004F0078003600F90016
:1028E0004200F9000040060003C8BF000160EF008D
:1028F0002080B200050032001080B20007003200D4
:102900002080B200080032000E00370010C0B30073
:1029100007E8B7000368EF000A0037000768EF0018
:102920000368EF00070037000768EF000368EF0057
:1029300020C0B30080E8B70030C0B3007EE8B70025
:1029400000003700000006000429EF000629EF0010
:102950000969EF000A69EF0003C9BF0034E2B7005C
:102960003562EF003222A90000000600851F7800C2
:102970007414020000000000044480006224E1009E
:1029800012023A007EC8BF000160EF001080B20062
:10299000210032002080B2003C0032002081B200D1
:1029A000570032003081B200720032002081B20044
:1029B0008D003200F081B200A80032003080B200F9
:1029C000C30032002080B200DE0032003080B2004E
:1029D000F90032006080B20014013200F080B200D1
:1029E0002F0132001080B2004A013200D080B200C4
:1029F00065013200E080B200800132001080B20038
:102A00009B013200E080B200B60132003080B2009B
:102A1000D1013200ED013700FE68EF00FEC8BF00B3
:102A20000000FB006500E1000D003D00FEC8BF0096
:102A30000000FB002488200084024000FEC8BF0084
:102A40000000FB00000278006220B8004C05020084
:102A500000000000804A7800FE68EC00EFFF3700BD
:102A600050C0B30081E8B70010C0B300FAE8B70067
:102A70000269EF0082C8BF0003E9B700A414020096
:102A80000000000097E0A800D0013700FE68EF00CA
:102A9000FEC8BF000000FB006500E1000D003D0026
:102AA000FEC8BF000000FB00248820008402400014
:102AB000FEC8BF000000FB00000278006220B800E2
:102AC0006005020000000000804A7800FE68EC000B
:102AD000EFFF370050C0B30081E8B70010C0B3006B
:102AE000FAE8B7000269EF0082C8BF0003E9B70047
:102AF000A41402000000000097E0A800B301370012
:102B0000FE68EF00FEC8BF000000FB006500E100AA
:102B10000D003D00FEC8BF000000FB00248820001F
:102B200084024000FEC8BF000000FB0000027800E5
:102B30006220B8001406020000000000804A7800FD
:102B4000FE68EC00EFFF370050C0B30081E8B7002B
:102B500010C0B300FAE8B7000269EF0082C8BF00F6
:102B600003E9B700A41402000000000097E0A800E9
:102B700096013700FE68EF00FEC8BF000000FB00B2
:102B80006500E1000D003D00FEC8BF000000FB0035
:102B90002488200084024000FEC8BF000000FB0023
:102BA000000278006220B800A006020000000000C9
:102BB000804A7800FE68EC00EFFF370050C0B30099
:102BC00081E8B70010C0B300FAE8B7000269EF006F
:102BD00082C8BF0003E9B700A4140200000000008F
:102BE00097E0A80079013700FE68EF00FEC8BF003B
:102BF0000000FB006500E1000D003D00FEC8BF00C5
:102C00000000FB002488200084024000FEC8BF00B2
:102C10000000FB00000278006220B8008C06020071
:102C200000000000804A7800FE68EC00EFFF3700EB
:102C300050C0B30081E8B70010C0B300FAE8B70095
:102C40000269EF0082C8BF0003E9B700A4140200C4
:102C50000000000097E0A8005C013700FE68EF006C
:102C6000FEC8BF000000FB006500E1000D003D0054
:102C7000FEC8BF000000FB00248820008402400042
:102C8000FEC8BF000000FB00000278006220B80010
:102C90007806020000000000804A7800FE68EC0020
:102CA000EFFF370050C0B30081E8B70010C0B30099
:102CB000FAE8B7000269EF0082C8BF0003E9B70075
:102CC000A41402000000000097E0A8003F013700B4
:102CD000FE68EF00FEC8BF000000FB006500E100D9
:102CE0000D003D00FEC8BF000000FB00248820004E
:102CF00084024000FEC8BF000000FB000002780014
:102D00006220B8003C06020000000000804A780003
:102D1000FE68EC00EFFF370050C0B30081E8B70059
:102D200010C0B300FAE8B7000269EF0082C8BF0024
:102D300003E9B700A41402000000000097E0A80017
:102D400022013700FE68EF00FEC8BF000000FB0054
:102D50006500E1000D003D00FEC8BF000000FB0063
:102D60002488200084024000FEC8BF000000FB0051
:102D7000000278006220B800640602000000000033
:102D8000804A7800FE68EC00EFFF370050C0B300C7
:102D900081E8B70010C0B300FAE8B7000269EF009D
:102DA00082C8BF0003E9B700A414020000000000BD
:102DB00097E0A80005013700FE68EF00FEC8BF00DD
:102DC0000000FB006500E1000D003D00FEC8BF00F3
:102DD0000000FB002488200084024000FEC8BF00E1
:102DE0000000FB00000278006220B80050060200DC
:102DF00000000000804A7800FE68EC00EFFF37001A
:102E000050C0B30081E8B70010C0B300FAE8B700C3
:102E10000269EF0082C8BF0003E9B700A4140200F2
:102E20000000000097E0A800E8003700FE68EF000F
:102E3000FEC8BF000000FB006500E1000D003D0082
:102E4000FEC8BF000000FB00248820008402400070
:102E5000FEC8BF000000FB00000278006220B8003E
:102E60002806020000000000804A7800FE68EC009E
:102E7000EFFF370050C0B30081E8B70010C0B300C7
:102E8000FAE8B7000269EF0082C8BF0003E9B700A3
:102E9000A41402000000000097E0A800CB00370057
:102EA000FE68EF00FEC8BF000000FB006700E10005
:102EB0000D003D00FEC8BF000000FB00248820007C
:102EC00084024000FEC8BF000000FB000002780042
:102ED0006220B8007405020000000000804A7800FB
:102EE000FE68EC00EFFF370070C0B30081E8B70068
:102EF00010C0B300FAE8B7000269EF0082C8BF0053
:102F000003E9B700A41402000000000097E0A80045
:102F1000AE003700FE68EF00FEC8BF000000FB00F7
:102F20006700E1000D003D00FEC8BF000000FB008F
:102F30002488200084024000FEC8BF000000FB007F
:102F4000000278006220B8008C050200000000003A
:102F5000804A7800FE68EC00EFFF370070C0B300D5
:102F600081E8B70010C0B300FAE8B7000269EF00CB
:102F700082C8BF0003E9B700A414020000000000EB
:102F800097E0A80091003700FE68EF00FEC8BF0080
:102F90000000FB006600E1000D003D00FEC8BF0020
:102FA0000000FB002488200084024000FEC8BF000F
:102FB0000000FB00000278006220B800D00502008B
:102FC00000000000804A7800FE68EC00EFFF370048
:102FD00060C0B30081E8B70010C0B300FAE8B700E2
:102FE0000269EF0082C8BF0003E9B700A414020021
:102FF0000000000097E0A80074003700FE68EF00B2
:10300000FEC8BF000000FB006600E1000D003D00AF
:10301000FEC8BF000000FB0024882000840240009E
:10302000FEC8BF000000FB00000278006220B8006C
:10303000A405020000000000804A7800FE68EC0051
:10304000EFFF370060C0B30081E8B70010C0B300E5
:10305000FAE8B7000269EF0082C8BF0003E9B700D1
:10306000A41402000000000097E0A80057003700F9
:10307000FE68EF00FEC8BF000000FB006600E10034
:103080000D003D00FEC8BF000000FB0024882000AA
:1030900084024000FEC8BF000000FB000002780070
:1030A0006220B800BA05020000000000804A7800E3
:1030B000FE68EC00EFFF370060C0B30081E8B700A6
:1030C00010C0B300FAE8B7000269EF0082C8BF0081
:1030D00003E9B700A41402000000000097E0A80074
:1030E0003A003700FE68EF00FEC8BF000000FB009A
:1030F0006700E1000D003D00FEC8BF000000FB00BE
:103100002488200084024000FEC8BF000000FB00AD
:10311000000278006220B800E6050200000000000E
:10312000804A7800FE68EC00EFFF370070C0B30003
:1031300081E8B70010C0B300FAE8B7000269EF00F9
:1031400082C8BF0003E9B700A41402000000000019
:1031500097E0A8001D003700FE68EF00FEC8BF0022
:103160000000FB006600E1000D003D00FEC8BF004E
:103170000000FB002488200084024000FEC8BF003D
:103180000000FB00000278006220B800FE0502008B
:1031900000000000804A7800FE68EC00EFFF370076
:1031A00060C0B30081E8B70010C0B300FAE8B70010
:1031B0000269EF0082C8BF0003E9B700A41402004F
:1031C0000000000097E0A800000037008048E200FF
:1031D00097003A007EC8BF000160EF000084B20093
:1031E000070032001084B2000C0032003081B200BF
:1031F000270032001080B200590032008C003700E6
:1032000030C0B3007EE8B70020C0B30080E8B7004C
:1032100010C0B3007EE8B70085003700FE68EF00FD
:10322000FEC8BF000000FB006500E1000D003D008E
:10323000FEC8BF000000FB0024882000840240007C
:10324000FEC8BF000000FB00000278006220B8004A
:103250004C05020000000000804A7800FE68EC0087
:10326000EFFF370050C0B30081E8B70010C0B300D3
:10327000FAE8B7000269EF0082C8BF0003E9B700AF
:10328000A41402000000000097E0A80068003700C6
:10329000C44380004822DE006124E10013003A00AC
:1032A000FE68EF00FEC8BF000000FB006600E10002
:1032B0000D003D00FEC8BF000000FB002488200078
:1032C00084024000FEC8BF000000FB00000278003E
:1032D0006220B800D005020000000000804A78009B
:1032E000FE68EC00EFFF370012003700FE68EF00C9
:1032F000FEC8BF000000FB006600E1000D003D00BD
:10330000FEC8BF000000FB002488200084024000AB
:10331000FEC8BF000000FB00000278006220B80079
:10332000DE06020000000000804A7800FE68EC0023
:10333000EFFF370060C0B30081E8B70010C0B300F2
:10334000FAE8B7000269EF0082C8BF0003E9B700DE
:10335000A41402000000000097E0A8003400370029
:10336000C44380004822DE006124E10013003A00DB
:10337000FE68EF00FEC8BF000000FB006600E10031
:103380000D003D00FEC8BF000000FB0024882000A7
:1033900084024000FEC8BF000000FB00000278006D
:1033A0006220B800C806020000000000804A7800D1
:1033B000FE68EC00EFFF370012003700FE68EF00F8
:1033C000FEC8BF000000FB006600E1000D003D00EC
:1033D000FEC8BF000000FB002488200084024000DB
:1033E000FEC8BF000000FB00000278006220B800A9
:1033F000FE05020000000000804A7800FE68EC0034
:10340000EFFF370060C0B30081E8B70010C0B30021
:10341000FAE8B7000269EF0082C8BF0003E9B7000D
:10342000A41402000000000097E0A800000037008C
:10343000044480006124E10063003A007EC8BF00BC
:103440000160EF001080B200050032007081B20010
:10345000200032001080B2003B0032005A003700DA
:10346000FE68EF00FEC8BF000000FB006500E10041
:103470000D003D00FEC8BF000000FB0024882000B6
:1034800084024000FEC8BF000000FB00000278007C
:103490006220B8004C05020000000000804A78005D
:1034A000FE68EC00EFFF370050C0B30081E8B700C2
:1034B00010C0B300FAE8B7000269EF0082C8BF008D
:1034C00003E9B700A41402000000000097E0A80080
:1034D0003D003700FE68EF00FEC8BF000000FB00A3
:1034E0006500E1000D003D00FEC8BF000000FB00CC
:1034F0002488200084024000FEC8BF000000FB00BA
:10350000000278006220B8003805020000000000C8
:10351000804A7800FE68EC00EFFF370050C0B3002F
:1035200081E8B70010C0B300FAE8B7000269EF0005
:1035300082C8BF0003E9B700A41402000000000025
:1035400097E0A8002000370010C0B3007EE8B70065
:10355000FE68EF00FEC8BF000000FB006500E10050
:103560000D003D00FEC8BF000000FB0024882000C5
:1035700084024000FEC8BF000000FB00000278008B
:103580006220B800B406020000000000804A780003
:10359000FE68EC00EFFF370050C0B30081E8B700D1
:1035A00010C0B300FAE8B7000269EF0082C8BF009C
:1035B00003E9B700A41402000000000097E0A8008F
:1035C0000100370000003700CF027800000006003D
:1035D00008C8BF00FEE8B7000C68EC000CC8BF00CC
:1035E0000000FB006100E1000F003A000C68EF00F2
:1035F000844380006124E1000B003200844380009A
:103600004822DE006124E10007003A00FEC8BF0046
:103610000000FB000000E0000300320010C0B30017
:1036200070E8B7007168EF00000006004200F80083
:103630003600F800801F7800200020000C000900F0
:10364000B01F7800FD68EC00FDC8BF000000FB0063
:103650006200E10003003A00B6140200000000001E
:10366000FD68EF00E81A0200000000008500A900D4
:10367000A00120000C0009004F1078004F007800D6
:103680003600F9004200F9000040060087E0A9007A
:103690004200F8003600F800801F7800200020006B
:1036A0000C000900B01F7800FE68EF00FAC8BF00E8
:1036B0008348E30004003A0097E0A900FB68EF00AC
:1036C000FC68EF000A003700FAC8BF000000FB00EA
:1036D0002488200004004000904278000269EF0036
:1036E0000540780003E9B700A414020000000000C0
:1036F000FA68EC00A00120000C0009004F107800CF
:103700004F0078003600F9004200F9000040060042
:103710004200F8003600F800801F780020002000EA
:103720000C000900B01F78008460A900A0012000EF
:103730000C0009004F1078004F0078003600F900A7
:103740004200F900004006000000E0004220AF0007
:10375000040037007B3E0900000000000000E90083
:10376000FCFF3A000000060081E0A900040E2000E2
:103770001402880081E0A800040028007416880064
:10378000C4FF2F0004168800C4FC2F0044168800D4
:10379000E4022100943188002CA3EF00043F2F00A5
:1037A0008431880024C028000411880034032000DC
:1037B00044118800F47121001411880024C02800ED
:1037C0008411880074062000C4118800F47121005F
:1037D000941188001021EF00F4FF22006408880093
:1037E00004002A00840888001221EF00A4FF2900A9
:1037F0007408880004022A00940888000421EF005D
:10380000F48F23001408880004022A00240888008A
:10381000C402A800C422A800CC02A800CC22A800A0
:1038200040382000A41B020000000000C402A900D0
:10383000C422A900CC02A900CC22A90000000600E5
:1038400040442500200588004044250030058800BC
:10385000504425004005880050442400500588004D
:10386000405425009005880081E0A80060042000F5
:1038700000C0BF007005200000C0BF0042C7A90003
:1038800070F02100A4A6B70080F02100A6A6B70022
:1038900030502000C4A6B7006004200042E7B70003
:1038A0007005200042E7B70042C7A8000168EF009A
:1038B0000268EF000368EF000468EF000568EF009E
:1038C0000668EF000768EF000A68EF000B68EF007A
:1038D0000C68EF000D68EF000E28EF00B0C0B300D9
:1038E00011E8B7006E68EF006F68EF0020C0B3000A
:1038F00070E8B7007168EF007268EF007368EF005E
:103900007468EF007568EF00F0CFB30079E8B70096
:103910007A68EF007C68EF007D68EF0010C0B300AC
:103920007EE8B7007F68EF0020C0B30080E8B700F2
:103930008168EF00FA68EF00FB68EF00FC68EF00B9
:10394000FD68EF002CA3EF000F782200F07F22002B
:1039500020A0B700000000001B0037008002080014
:1039600008000000800B08001209740008FFF10035
:10397000FFCC610012587300405100008003080022
:103980007600000000C078000882000000000000FF
:103990000201E8006110E10004003A009101BA0060
:1039A0003182BA0006C0BF00000006006210E100CC
:1039B00002003A0007C0BF000000060008C0BF00B8
:1039C0000001EB00000006000600200000002000BF
:1039D00090018800E0CA2100800078000001EB001F
:1039E000C81C0200000000000BE0B700C81C020069
:1039F000000000000AE0B7000500E00019003200F6
:103A000005F0A60007003700C81C020000000000F7
:103A10000DE0B700C81C0200000000000CE0B70079
:103A200005F0A10005E0A6000800370005E0A100B0
:103A30008502E900C81C02000000000080437800F5
:103A400005800900075B7800E5FF3700C81C02000D
:103A500000000000005B78008502E900FBFF3A00EF
:103A6000DFFF3700B41B0200000000009500A80033
:103A700011E1A9000621EF0084E0A90094E0A9006B
:103A80009460A8009560A80097C0A80081E0A900F4
:103A90004220EF0081E0A80011E1A8000621EF001C
:103AA00094E0A8002282AF00010037000621EF0059
:083AB000FCFF37000040FE009E
:08AFF800F5FB00FF7F0F00FFD5
:00000001FF
;PIC24FJ32GA002
;CRC=9171  CREATED="20-Oct-11 14:53"
